:1000000010C02AC029C028C027C026C025C024C0CF
:1000100023C022C021C020C01FC01EC01DC01CC0E4
:100020001BC011241FBECFE5D1E0DEBFCDBF10E065
:10003000A0E6B0E0EEE5F4E002C005900D92A6382F
:10004000B107D9F720E0A6E8B0E001C01D92AB38B7
:10005000B207E1F75DD101C2D3CFEF92FF920F93C8
:100060001F93CF93DF938C017B0127B9369A369982
:10007000FECF24B185B190E0982F8827820F911D83
:100080000B97A4F7D198D098D598D498F701808190
:10009000C1E0D0E0042E01C0CC0F0A94EAF78C2B0B
:1000A000F7018083F80180818C2BF8018083F6E0D2
:1000B000FA95F1F700C0369A3699FECF45B160E463
:1000C0008BE390E017D0F8018081C0958C2380836A
:1000D000F70180818C238083D19AD09AD59AD49AC3
:1000E000DF91CF911F910F91FF90EF900895DE9ACD
:1000F000D69A0895FC019081862F8095982390834D
:1001000098E39A95F1F700C0908140FF02C0962BCA
:1001100001C09823908398E39A95F1F700C09081ED
:1001200041FF02C0962B01C09823908398E39A95D3
:10013000F1F700C0908142FF02C0962B01C09823C6
:10014000908398E39A95F1F700C0908143FF02C035
:10015000962B01C09823908398E39A95F1F700C0FD
:10016000908144FF02C0962B01C09823908398E3AE
:100170009A95F1F700C0908145FF02C0962B01C00F
:100180009823908398E39A95F1F700C0908146FFF9
:1001900002C0962B01C09823908398E39A95F1F7BB
:1001A00000C047FF04C08081862B808303C09081FC
:1001B0009823908388E38A95F1F700C08081862B8D
:1001C000808398E39A95F1F700C088E38A95F1F768
:1001D00000C00895BF92CF92DF92EF92FF920F93EB
:1001E0001F93CF93DF938C01D62E9A0141155105B1
:1001F00019F0C1E0D0E00BC040E3DF91CF911F9137
:100200000F91FF90EF90DF90CF90BF9073CF2C179E
:100210003D0734F0CE016AE070E0E7D0EC01F7CFA3
:100220008AE0E82EF12CC230D10584F0CE01B7016E
:10023000EDD0EB01C901EAD0B82EC92E40E3460F3C
:100240006D2DC80157DF2B2D3C2DEDCFDF91CF91C8
:100250001F910F91FF90EF90DF90CF90BF90089586
:10026000FF920F931F93CF93DF93EC01F62E8A0139
:1002700010928A0010928900E0918900F0918A0022
:10028000E00FF11F4491409388006F2DCE0132DFC3
:100290002091890030918A002F5F3F4F30938A0070
:1002A00020938900809188008111E6CFDF91CF9162
:1002B0001F910F91FF900895FF920F931F93CF937B
:1002C000DF938C01F62EEA011092870010928600CF
:1002D000E0918600F0918700EC0FFD1F40816F2DAB
:1002E000C80108DF20918600309187002F5F3F4FC3
:1002F0003093870020938600FE01E20FF31F808178
:100300008111E6CFDF91CF911F910F91FF9008955A
:10031000CF93DF93CDB7DEB728970FB6F894DEBF43
:100320000FBECDBF80E886BD16BC87E986B91C9A92
:10033000DEDE40E650E060E48BE390E0BDDF87E086
:100340008D8383E08E8382E08F83888781E0898339
:100350001A8285E08B8384E08C836E0185E0C80E71
:10036000D11C48E660E48BE390E0C4DE45E660E43F
:100370008BE390E0BFDE4CE660E48BE390E0BADE16
:100380004CE660E48BE390E0B5DE4FE660E48BE39F
:1003900090E0B0DEFE0131967F0100E010E0F70151
:1003A00020810230110531F442E067E370E088E318
:1003B00090E008C0F601E00FF11F40816AE370E0B1
:1003C0008BE390E04ADE0F5F1F4F0430110539F7D1
:1003D000FFEFEF1AFF0AEC14FD04F9F683E59CEE3B
:1003E0000197F1F700C00000BCCF0024552704C0DE
:1003F000080E591F880F991F009729F07695679569
:10040000B8F37105B9F7802D952F089597FB072E46
:1004100016F4009406D077FD08D00BD007FC05D069
:100420003EF4909581959F4F0895709561957F4F0B
:100430000895AA1BBB1B51E107C0AA1FBB1FA6172B
:10044000B70710F0A61BB70B881F991F5A95A9F77D
:0E04500080959095BC01CD010895F894FFCFE2
:00000001FF
