:100000000C9434000C9451000C9451000C94510049
:100010000C9451000C9451000C9451000C9451001C
:100020000C9451000C9451000C9451000C9451000C
:100030000C9451000C9451000C9451000C945100FC
:100040000C9451000C9451000C9451000C945100EC
:100050000C9451000C9451000C9451000C945100DC
:100060000C9451000C94510011241FBECFEFD8E026
:10007000DEBFCDBF11E0A0E0B1E0E0EFF4E002C0F0
:1000800005900D92A634B107D9F721E0A6E4B1E0BE
:1000900001C01D92AB34B207E1F70E9401020C943B
:1000A00076020C940000EF92FF920F931F93CF9370
:1000B000DF9390E09C01220F331FD901A25DBE4F58
:1000C0000D911C91F901EA5EFE4FC081D181FC01C6
:1000D000E65FFE4FE080E62FF0E0E050FF4F8081CA
:1000E00080937C00809164008E7F80936400809177
:1000F0007A00806480937A0080917A0086FDFCCF3C
:10010000209178008091790090E0982F8827820FC5
:10011000911D0B973CF7E6E0F1E021E030E047B1BC
:10012000C901019002C0880F991F0A94E2F78095D7
:10013000842387B941E0EA30F40789F7288181E018
:1001400090E0FC0102C0EE0FFF1FEA94E2F77F018E
:100150002E2B2883F80180818E298083F5E0FA9583
:10016000F1F70000809164008E7F8093640080919D
:100170007A00806480937A0080917A0086FDFCCFBB
:100180004091790062E08BE290E00E94EB00F80180
:100190008081E0948E21808388818E218883E6E0AF
:1001A000F1E021E030E047B1C901019002C0880FC1
:1001B000991F0A94E2F7482B47B941E0EA30F40767
:1001C00091F7DF91CF911F910F91FF90EF900895DC
:1001D000599A519A0895FC019081862F8095982311
:1001E00090839DE29A95F1F70000908140FF02C054
:1001F000962B01C0982390839DE29A95F1F7000019
:10020000908141FF02C0962B01C0982390839DE20C
:100210009A95F1F70000908142FF02C0962B01C031
:10022000982390839DE29A95F1F70000908143FF17
:1002300002C0962B01C0982390839DE29A95F1F716
:100240000000908144FF02C0962B01C09823908348
:100250009DE29A95F1F70000908145FF02C0962B30
:1002600001C0982390839DE29A95F1F70000908158
:1002700046FF02C0962B01C0982390839DE29A9579
:10028000F1F7000047FF04C08081862B808303C004
:100290009081982390838DE28A95F1F70000808108
:1002A000862B80839DE29A95F1F700008DE28A9576
:1002B000F1F700000895BF92CF92DF92EF92FF9284
:1002C0000F931F93CF93DF938C01D62E9A01411584
:1002D000510521F0C1E0D0E08AE00CC040E3DF919D
:1002E000CF911F910F91FF90EF90DF90CF90BF9033
:1002F0000C94EB002C173D073CF0AE01849FE0010D
:10030000859FD00D1124F6CF8AE0E82EF12CC23063
:10031000D1059CF0CE01B7010E944E02EB01C9014C
:100320000E944E02B82EC92E40E3460F6D2DC80123
:100330000E94EB002B2D3C2DEACFDF91CF911F9136
:100340000F91FF90EF90DF90CF90BF900895FF92B4
:100350000F931F93CF93DF93EC01F62E8A01109237
:100360004A0110924901E0914901F0914A01E00FE0
:10037000F11F4491409348016F2DCE010E94EB0084
:100380002091490130914A012F5F3F4F30934A013C
:1003900020934901809148018111E5CFDF91CF91F0
:1003A0001F910F91FF900895FF920F931F93CF938A
:1003B000DF938C01F62EEA0110924701109246015C
:1003C000E0914601F0914701EC0FFD1F40816F2D38
:1003D000C8010E94EB0020914601309147012F5F38
:1003E0003F4F3093470120934601FE01E20FF31F78
:1003F00080818111E5CFDF91CF911F910F91FF9007
:10040000089580E8809361001092610087E88093EE
:100410007A000E94E80048E662E08BE290E00E94E9
:10042000EB0045E662E08BE290E00E94EB004CE6D8
:1004300062E08BE290E00E94EB004CE662E08BE22F
:1004400090E00E94EB004FE662E08BE290E00E94B9
:10045000EB00C0E0D1E010E0412F62E08BE290E0E1
:100460000E94EB0046E662E08BE290E00E94EB0027
:10047000499162E08BE290E00E94EB0041E01111B3
:1004800040E062E08BE290E00E94EB00612F80E0B0
:100490000E9453001F5F1630F9F6BDCF97FB072E61
:1004A00016F4009407D077FD09D00E94620207FC81
:1004B00005D03EF4909581959F4F08957095619574
:1004C0007F4F0895AA1BBB1B51E107C0AA1FBB1F8A
:1004D000A617B70710F0A61BB70B881F991F5A95D0
:1004E000A9F780959095BC01CD010895F894FFCFB0
:00000001FF
