:1000000010C01FC01EC01DC01CC01BC01AC019C01C
:1000100018C017C016C015C014C013C012C011C03C
:1000200010C011241FBECFE5D1E0DEBFCDBF20E060
:10003000A0E6B0E001C01D92A536B207E1F775D188
:10004000C6C1DECFDF9A2FEF84E39CE021508040D1
:100050009040E1F700C00000DF982FEF84E39CE0C0
:10006000215080409040E1F700C00000DF9A2FEF60
:1000700084E39CE0215080409040E1F700C0000004
:10008000DF982FEF84E39CE0215080409040E1F71F
:1000900000C000000895FC01DB0127B90098369AE2
:1000A0003699FECF24B185B190E0982F8827820F32
:1000B000911D0B979CF7D0988C9121E030E0042E95
:1000C00001C0220F0A94EAF7822B8C938081822B45
:1000D000808386E08A95F1F700C00098369A3699B9
:1000E000FECF84B1873F08F4DF9A80812095822378
:1000F00080838C9182238C93D09A87E893E1019737
:10010000F1F700C000000895D89AD09A0895FC0134
:100110009081862F80959823908398E39A95F1F7A4
:1001200000C0908140FF02C0962B01C098239083AD
:1001300098E39A95F1F700C0908141FF02C0962B99
:1001400001C09823908398E39A95F1F700C09081BD
:1001500042FF02C0962B01C09823908398E39A95A2
:10016000F1F700C0908143FF02C0962B01C0982395
:10017000908398E39A95F1F700C0908144FF02C004
:10018000962B01C09823908398E39A95F1F700C0CD
:10019000908145FF02C0962B01C09823908398E37D
:1001A0009A95F1F700C0908146FF02C0962B01C0DE
:1001B0009823908398E39A95F1F700C047FF04C015
:1001C0008081862B808303C090819823908388E36D
:1001D0008A95F1F700C08081862B808398E39A95F9
:1001E000F1F700C088E38A95F1F700C00895BF9247
:1001F000CF92DF92EF92FF920F931F93CF93DF93F3
:100200008C01D62E9A014115510519F0C1E0D0E0BC
:100210000BC040E3DF91CF911F910F91FF90EF90C2
:10022000DF90CF90BF9073CF2C173D0734F0CE01F5
:100230006AE070E094D0EC01F7CF8AE0E82EF12C70
:10024000C230D10584F0CE01B7019AD0EB01C901CB
:1002500097D0B82EC92E40E3460F6D2DC80157DF49
:100260002B2D3C2DEDCFDF91CF911F910F91FF9062
:10027000EF90DF90CF90BF900895FF920F931F9360
:10028000CF93DF93EC01F62E8A0110926400109256
:100290006300E0916300F0916400E00FF11F44916E
:1002A000409362006F2DCE0132DF209163003091C8
:1002B00064002F5F3F4F3093640020936300809170
:1002C00062008111E6CFDF91CF911F910F91FF90D6
:1002D0000895FF920F931F93CF93DF938C01F62E17
:1002E000EA011092610010926000E0916000F091CC
:1002F0006100EC0FFD1F40816F2DC80108DF2091C8
:100300006000309161002F5F3F4F30936100209378
:100310006000FE01E20FF31F80818111E6CFDF91C3
:10032000CF911F910F91FF90089580E886BD16BC74
:1003300087E886B9E9DED79ADF9A84DE20E042E0DA
:100340006AE370E08BE390E0A6DE2FEF89E698E1A8
:10035000215080409040E1F700C00000EECF002423
:10036000552704C0080E591F880F991F009729F0C0
:1003700076956795B8F37105B9F7802D952F089597
:1003800097FB072E16F4009406D077FD08D00BD00B
:1003900007FC05D03EF4909581959F4F0895709588
:1003A00061957F4F0895AA1BBB1B51E107C0AA1F8F
:1003B000BB1FA617B70710F0A61BB70B881F991F06
:1003C0005A95A9F780959095BC01CD010895F894B0
:0203D000FFCF5D
:00000001FF
